{
  "contractName": "DateNFT",
  "abi": [
    {
      "inputs": [],
      "stateMutability": "nonpayable",
      "type": "constructor"
    },
    {
      "anonymous": false,
      "inputs": [
        {
          "indexed": true,
          "internalType": "address",
          "name": "owner",
          "type": "address"
        },
        {
          "indexed": true,
          "internalType": "address",
          "name": "approved",
          "type": "address"
        },
        {
          "indexed": true,
          "internalType": "uint256",
          "name": "tokenId",
          "type": "uint256"
        }
      ],
      "name": "Approval",
      "type": "event"
    },
    {
      "anonymous": false,
      "inputs": [
        {
          "indexed": true,
          "internalType": "address",
          "name": "owner",
          "type": "address"
        },
        {
          "indexed": true,
          "internalType": "address",
          "name": "operator",
          "type": "address"
        },
        {
          "indexed": false,
          "internalType": "bool",
          "name": "approved",
          "type": "bool"
        }
      ],
      "name": "ApprovalForAll",
      "type": "event"
    },
    {
      "anonymous": false,
      "inputs": [
        {
          "indexed": true,
          "internalType": "address",
          "name": "from",
          "type": "address"
        },
        {
          "indexed": true,
          "internalType": "address",
          "name": "to",
          "type": "address"
        },
        {
          "indexed": true,
          "internalType": "uint256",
          "name": "tokenId",
          "type": "uint256"
        }
      ],
      "name": "Transfer",
      "type": "event"
    },
    {
      "inputs": [],
      "name": "admin",
      "outputs": [
        {
          "internalType": "address payable",
          "name": "",
          "type": "address"
        }
      ],
      "stateMutability": "view",
      "type": "function",
      "constant": true
    },
    {
      "inputs": [
        {
          "internalType": "address",
          "name": "to",
          "type": "address"
        },
        {
          "internalType": "uint256",
          "name": "tokenId",
          "type": "uint256"
        }
      ],
      "name": "approve",
      "outputs": [],
      "stateMutability": "nonpayable",
      "type": "function"
    },
    {
      "inputs": [
        {
          "internalType": "address",
          "name": "owner",
          "type": "address"
        }
      ],
      "name": "balanceOf",
      "outputs": [
        {
          "internalType": "uint256",
          "name": "",
          "type": "uint256"
        }
      ],
      "stateMutability": "view",
      "type": "function",
      "constant": true
    },
    {
      "inputs": [
        {
          "internalType": "uint256",
          "name": "",
          "type": "uint256"
        }
      ],
      "name": "dateArray",
      "outputs": [
        {
          "internalType": "uint256",
          "name": "id",
          "type": "uint256"
        },
        {
          "internalType": "uint256",
          "name": "day",
          "type": "uint256"
        },
        {
          "internalType": "uint256",
          "name": "month",
          "type": "uint256"
        },
        {
          "internalType": "uint256",
          "name": "year",
          "type": "uint256"
        },
        {
          "internalType": "string",
          "name": "title",
          "type": "string"
        }
      ],
      "stateMutability": "view",
      "type": "function",
      "constant": true
    },
    {
      "inputs": [
        {
          "internalType": "uint256",
          "name": "",
          "type": "uint256"
        }
      ],
      "name": "dateIds",
      "outputs": [
        {
          "internalType": "uint256",
          "name": "id",
          "type": "uint256"
        },
        {
          "internalType": "uint256",
          "name": "day",
          "type": "uint256"
        },
        {
          "internalType": "uint256",
          "name": "month",
          "type": "uint256"
        },
        {
          "internalType": "uint256",
          "name": "year",
          "type": "uint256"
        },
        {
          "internalType": "string",
          "name": "title",
          "type": "string"
        }
      ],
      "stateMutability": "view",
      "type": "function",
      "constant": true
    },
    {
      "inputs": [
        {
          "internalType": "address",
          "name": "",
          "type": "address"
        },
        {
          "internalType": "uint256",
          "name": "",
          "type": "uint256"
        }
      ],
      "name": "dateOwners",
      "outputs": [
        {
          "internalType": "uint256",
          "name": "id",
          "type": "uint256"
        },
        {
          "internalType": "uint256",
          "name": "day",
          "type": "uint256"
        },
        {
          "internalType": "uint256",
          "name": "month",
          "type": "uint256"
        },
        {
          "internalType": "uint256",
          "name": "year",
          "type": "uint256"
        },
        {
          "internalType": "string",
          "name": "title",
          "type": "string"
        }
      ],
      "stateMutability": "view",
      "type": "function",
      "constant": true
    },
    {
      "inputs": [
        {
          "internalType": "uint256",
          "name": "tokenId",
          "type": "uint256"
        }
      ],
      "name": "getApproved",
      "outputs": [
        {
          "internalType": "address",
          "name": "",
          "type": "address"
        }
      ],
      "stateMutability": "view",
      "type": "function",
      "constant": true
    },
    {
      "inputs": [
        {
          "internalType": "address",
          "name": "owner",
          "type": "address"
        },
        {
          "internalType": "address",
          "name": "operator",
          "type": "address"
        }
      ],
      "name": "isApprovedForAll",
      "outputs": [
        {
          "internalType": "bool",
          "name": "",
          "type": "bool"
        }
      ],
      "stateMutability": "view",
      "type": "function",
      "constant": true
    },
    {
      "inputs": [
        {
          "internalType": "uint256",
          "name": "",
          "type": "uint256"
        }
      ],
      "name": "isDateOwned",
      "outputs": [
        {
          "internalType": "bool",
          "name": "",
          "type": "bool"
        }
      ],
      "stateMutability": "view",
      "type": "function",
      "constant": true
    },
    {
      "inputs": [],
      "name": "name",
      "outputs": [
        {
          "internalType": "string",
          "name": "",
          "type": "string"
        }
      ],
      "stateMutability": "view",
      "type": "function",
      "constant": true
    },
    {
      "inputs": [
        {
          "internalType": "uint256",
          "name": "tokenId",
          "type": "uint256"
        }
      ],
      "name": "ownerOf",
      "outputs": [
        {
          "internalType": "address",
          "name": "",
          "type": "address"
        }
      ],
      "stateMutability": "view",
      "type": "function",
      "constant": true
    },
    {
      "inputs": [
        {
          "internalType": "address",
          "name": "from",
          "type": "address"
        },
        {
          "internalType": "address",
          "name": "to",
          "type": "address"
        },
        {
          "internalType": "uint256",
          "name": "tokenId",
          "type": "uint256"
        }
      ],
      "name": "safeTransferFrom",
      "outputs": [],
      "stateMutability": "nonpayable",
      "type": "function"
    },
    {
      "inputs": [
        {
          "internalType": "address",
          "name": "from",
          "type": "address"
        },
        {
          "internalType": "address",
          "name": "to",
          "type": "address"
        },
        {
          "internalType": "uint256",
          "name": "tokenId",
          "type": "uint256"
        },
        {
          "internalType": "bytes",
          "name": "_data",
          "type": "bytes"
        }
      ],
      "name": "safeTransferFrom",
      "outputs": [],
      "stateMutability": "nonpayable",
      "type": "function"
    },
    {
      "inputs": [
        {
          "internalType": "address",
          "name": "operator",
          "type": "address"
        },
        {
          "internalType": "bool",
          "name": "approved",
          "type": "bool"
        }
      ],
      "name": "setApprovalForAll",
      "outputs": [],
      "stateMutability": "nonpayable",
      "type": "function"
    },
    {
      "inputs": [
        {
          "internalType": "bytes4",
          "name": "interfaceId",
          "type": "bytes4"
        }
      ],
      "name": "supportsInterface",
      "outputs": [
        {
          "internalType": "bool",
          "name": "",
          "type": "bool"
        }
      ],
      "stateMutability": "view",
      "type": "function",
      "constant": true
    },
    {
      "inputs": [],
      "name": "symbol",
      "outputs": [
        {
          "internalType": "string",
          "name": "",
          "type": "string"
        }
      ],
      "stateMutability": "view",
      "type": "function",
      "constant": true
    },
    {
      "inputs": [
        {
          "internalType": "uint256",
          "name": "tokenId",
          "type": "uint256"
        }
      ],
      "name": "tokenURI",
      "outputs": [
        {
          "internalType": "string",
          "name": "",
          "type": "string"
        }
      ],
      "stateMutability": "view",
      "type": "function",
      "constant": true
    },
    {
      "inputs": [],
      "name": "totalDates",
      "outputs": [
        {
          "internalType": "uint256",
          "name": "",
          "type": "uint256"
        }
      ],
      "stateMutability": "view",
      "type": "function",
      "constant": true
    },
    {
      "inputs": [
        {
          "internalType": "address",
          "name": "from",
          "type": "address"
        },
        {
          "internalType": "address",
          "name": "to",
          "type": "address"
        },
        {
          "internalType": "uint256",
          "name": "tokenId",
          "type": "uint256"
        }
      ],
      "name": "transferFrom",
      "outputs": [],
      "stateMutability": "nonpayable",
      "type": "function"
    },
    {
      "inputs": [
        {
          "internalType": "uint256",
          "name": "day",
          "type": "uint256"
        },
        {
          "internalType": "uint256",
          "name": "month",
          "type": "uint256"
        },
        {
          "internalType": "uint256",
          "name": "year",
          "type": "uint256"
        },
        {
          "internalType": "string",
          "name": "title",
          "type": "string"
        }
      ],
      "name": "mint",
      "outputs": [],
      "stateMutability": "nonpayable",
      "type": "function"
    },
    {
      "inputs": [
        {
          "internalType": "uint256",
          "name": "id",
          "type": "uint256"
        }
      ],
      "name": "claim",
      "outputs": [],
      "stateMutability": "payable",
      "type": "function",
      "payable": true
    },
    {
      "inputs": [],
      "name": "getAllDates",
      "outputs": [
        {
          "components": [
            {
              "internalType": "uint256",
              "name": "id",
              "type": "uint256"
            },
            {
              "internalType": "uint256",
              "name": "day",
              "type": "uint256"
            },
            {
              "internalType": "uint256",
              "name": "month",
              "type": "uint256"
            },
            {
              "internalType": "uint256",
              "name": "year",
              "type": "uint256"
            },
            {
              "internalType": "string",
              "name": "title",
              "type": "string"
            }
          ],
          "internalType": "struct DateNFT.Date[]",
          "name": "",
          "type": "tuple[]"
        }
      ],
      "stateMutability": "view",
      "type": "function",
      "constant": true
    },
    {
      "inputs": [],
      "name": "getAllOwnedDates",
      "outputs": [
        {
          "components": [
            {
              "internalType": "uint256",
              "name": "id",
              "type": "uint256"
            },
            {
              "internalType": "uint256",
              "name": "day",
              "type": "uint256"
            },
            {
              "internalType": "uint256",
              "name": "month",
              "type": "uint256"
            },
            {
              "internalType": "uint256",
              "name": "year",
              "type": "uint256"
            },
            {
              "internalType": "string",
              "name": "title",
              "type": "string"
            }
          ],
          "internalType": "struct DateNFT.Date[]",
          "name": "",
          "type": "tuple[]"
        }
      ],
      "stateMutability": "view",
      "type": "function",
      "constant": true
    }
  ],
  "bytecode": "0x608060405260006006553480156200001657600080fd5b506040518060400160405280600481526020017f44617465000000000000000000000000000000000000000000000000000000008152506040518060400160405280600481526020017f444154450000000000000000000000000000000000000000000000000000000081525081600090805190602001906200009b929190620000fe565b508060019080519060200190620000b4929190620000fe565b50505033600760006101000a81548173ffffffffffffffffffffffffffffffffffffffff021916908373ffffffffffffffffffffffffffffffffffffffff16021790555062000213565b8280546200010c90620001ae565b90600052602060002090601f0160209004810192826200013057600085556200017c565b82601f106200014b57805160ff19168380011785556200017c565b828001600101855582156200017c579182015b828111156200017b5782518255916020019190600101906200015e565b5b5090506200018b91906200018f565b5090565b5b80821115620001aa57600081600090555060010162000190565b5090565b60006002820490506001821680620001c757607f821691505b60208210811415620001de57620001dd620001e4565b5b50919050565b7f4e487b7100000000000000000000000000000000000000000000000000000000600052602260045260246000fd5b61340f80620002236000396000f3fe6080604052600436106101405760003560e01c80634879a9d3116100b6578063a73080631161006f578063a73080631461048d578063b88d4fde146104ce578063c87b56dd146104f7578063cd41d8a514610534578063e985e9c51461055f578063f851a4401461059c57610140565b80634879a9d31461035957806357e7aba7146103965780636352211e146103bf57806370a08231146103fc57806395d89b4114610439578063a22cb4651461046457610140565b806323b872dd1161010857806323b872dd1461023e57806333d7f93214610267578063379607f51461029257806338abd6af146102ae57806342842e0e146102ef57806345c1c70a1461031857610140565b806301ffc9a71461014557806306fdde0314610182578063081812fc146101ad578063095ea7b3146101ea5780631aa05abf14610213575b600080fd5b34801561015157600080fd5b5061016c60048036038101906101679190612425565b6105c7565b6040516101799190612d11565b60405180910390f35b34801561018e57600080fd5b506101976106a9565b6040516101a49190612d2c565b60405180910390f35b3480156101b957600080fd5b506101d460048036038101906101cf9190612477565b61073b565b6040516101e19190612c6d565b60405180910390f35b3480156101f657600080fd5b50610211600480360381019061020c91906123e9565b6107c0565b005b34801561021f57600080fd5b506102286108d8565b6040516102359190612cef565b60405180910390f35b34801561024a57600080fd5b50610265600480360381019061026091906122e3565b6109f1565b005b34801561027357600080fd5b5061027c610a51565b6040516102899190612cef565b60405180910390f35b6102ac60048036038101906102a79190612477565b610ba7565b005b3480156102ba57600080fd5b506102d560048036038101906102d091906123e9565b610e4e565b6040516102e6959493929190612f09565b60405180910390f35b3480156102fb57600080fd5b50610316600480360381019061031191906122e3565b610f29565b005b34801561032457600080fd5b5061033f600480360381019061033a9190612477565b610f49565b604051610350959493929190612f09565b60405180910390f35b34801561036557600080fd5b50610380600480360381019061037b9190612477565b611017565b60405161038d9190612d11565b60405180910390f35b3480156103a257600080fd5b506103bd60048036038101906103b891906124a0565b611037565b005b3480156103cb57600080fd5b506103e660048036038101906103e19190612477565b6111fe565b6040516103f39190612c6d565b60405180910390f35b34801561040857600080fd5b50610423600480360381019061041e919061227e565b6112b0565b6040516104309190612eee565b60405180910390f35b34801561044557600080fd5b5061044e611368565b60405161045b9190612d2c565b60405180910390f35b34801561047057600080fd5b5061048b600480360381019061048691906123ad565b6113fa565b005b34801561049957600080fd5b506104b460048036038101906104af9190612477565b61157b565b6040516104c5959493929190612f09565b60405180910390f35b3480156104da57600080fd5b506104f560048036038101906104f09190612332565b611639565b005b34801561050357600080fd5b5061051e60048036038101906105199190612477565b61169b565b60405161052b9190612d2c565b60405180910390f35b34801561054057600080fd5b50610549611742565b6040516105569190612eee565b60405180910390f35b34801561056b57600080fd5b50610586600480360381019061058191906122a7565b611748565b6040516105939190612d11565b60405180910390f35b3480156105a857600080fd5b506105b16117dc565b6040516105be9190612c88565b60405180910390f35b60007f80ac58cd000000000000000000000000000000000000000000000000000000007bffffffffffffffffffffffffffffffffffffffffffffffffffffffff1916827bffffffffffffffffffffffffffffffffffffffffffffffffffffffff1916148061069257507f5b5e139f000000000000000000000000000000000000000000000000000000007bffffffffffffffffffffffffffffffffffffffffffffffffffffffff1916827bffffffffffffffffffffffffffffffffffffffffffffffffffffffff1916145b806106a257506106a182611802565b5b9050919050565b6060600080546106b890613204565b80601f01602080910402602001604051908101604052809291908181526020018280546106e490613204565b80156107315780601f1061070657610100808354040283529160200191610731565b820191906000526020600020905b81548152906001019060200180831161071457829003601f168201915b5050505050905090565b60006107468261186c565b610785576040517f08c379a000000000000000000000000000000000000000000000000000000000815260040161077c90612e2e565b60405180910390fd5b6004600083815260200190815260200160002060009054906101000a900473ffffffffffffffffffffffffffffffffffffffff169050919050565b60006107cb826111fe565b90508073ffffffffffffffffffffffffffffffffffffffff168373ffffffffffffffffffffffffffffffffffffffff16141561083c576040517f08c379a000000000000000000000000000000000000000000000000000000000815260040161083390612e8e565b60405180910390fd5b8073ffffffffffffffffffffffffffffffffffffffff1661085b6118d8565b73ffffffffffffffffffffffffffffffffffffffff16148061088a5750610889816108846118d8565b611748565b5b6108c9576040517f08c379a00000000000000000000000000000000000000000000000000000000081526004016108c090612dce565b60405180910390fd5b6108d383836118e0565b505050565b60606008805480602002602001604051908101604052809291908181526020016000905b828210156109e857838290600052602060002090600502016040518060a00160405290816000820154815260200160018201548152602001600282015481526020016003820154815260200160048201805461095790613204565b80601f016020809104026020016040519081016040528092919081815260200182805461098390613204565b80156109d05780601f106109a5576101008083540402835291602001916109d0565b820191906000526020600020905b8154815290600101906020018083116109b357829003601f168201915b505050505081525050815260200190600101906108fc565b50505050905090565b610a026109fc6118d8565b82611999565b610a41576040517f08c379a0000000000000000000000000000000000000000000000000000000008152600401610a3890612eae565b60405180910390fd5b610a4c838383611a77565b505050565b6060600a60003373ffffffffffffffffffffffffffffffffffffffff1673ffffffffffffffffffffffffffffffffffffffff168152602001908152602001600020805480602002602001604051908101604052809291908181526020016000905b82821015610b9e57838290600052602060002090600502016040518060a001604052908160008201548152602001600182015481526020016002820154815260200160038201548152602001600482018054610b0d90613204565b80601f0160208091040260200160405190810160405280929190818152602001828054610b3990613204565b8015610b865780601f10610b5b57610100808354040283529160200191610b86565b820191906000526020600020905b815481529060010190602001808311610b6957829003601f168201915b50505050508152505081526020019060010190610ab2565b50505050905090565b67016345785d8a00003411610bbb57600080fd5b60011515600b600083815260200190815260200160002060009054906101000a900460ff1615151415610c23576040517f08c379a0000000000000000000000000000000000000000000000000000000008152600401610c1a90612ece565b60405180910390fd5b6001600b600083815260200190815260200160002060006101000a81548160ff0219169083151502179055506000600a60003373ffffffffffffffffffffffffffffffffffffffff1673ffffffffffffffffffffffffffffffffffffffff16815260200190815260200160002090506000600960008481526020019081526020016000206040518060a001604052908160008201548152602001600182015481526020016002820154815260200160038201548152602001600482018054610cea90613204565b80601f0160208091040260200160405190810160405280929190818152602001828054610d1690613204565b8015610d635780601f10610d3857610100808354040283529160200191610d63565b820191906000526020600020905b815481529060010190602001808311610d4657829003601f168201915b505050505081525050905081819080600181540180825580915050600190039060005260206000209060050201600090919091909150600082015181600001556020820151816001015560408201518160020155606082015181600301556080820151816004019080519060200190610ddd9291906120a2565b505050600760009054906101000a900473ffffffffffffffffffffffffffffffffffffffff1673ffffffffffffffffffffffffffffffffffffffff166108fc479081150290604051600060405180830381858888f19350505050158015610e48573d6000803e3d6000fd5b50505050565b600a6020528160005260406000208181548110610e6a57600080fd5b906000526020600020906005020160009150915050806000015490806001015490806002015490806003015490806004018054610ea690613204565b80601f0160208091040260200160405190810160405280929190818152602001828054610ed290613204565b8015610f1f5780601f10610ef457610100808354040283529160200191610f1f565b820191906000526020600020905b815481529060010190602001808311610f0257829003601f168201915b5050505050905085565b610f4483838360405180602001604052806000815250611639565b505050565b60088181548110610f5957600080fd5b9060005260206000209060050201600091509050806000015490806001015490806002015490806003015490806004018054610f9490613204565b80601f0160208091040260200160405190810160405280929190818152602001828054610fc090613204565b801561100d5780601f10610fe25761010080835404028352916020019161100d565b820191906000526020600020905b815481529060010190602001808311610ff057829003601f168201915b5050505050905085565b600b6020528060005260406000206000915054906101000a900460ff1681565b600760009054906101000a900473ffffffffffffffffffffffffffffffffffffffff1673ffffffffffffffffffffffffffffffffffffffff163373ffffffffffffffffffffffffffffffffffffffff161461109157600080fd5b600660008154809291906110a490613236565b91905055506040518060a0016040528060065481526020018581526020018481526020018381526020018281525060096000600654815260200190815260200160002060008201518160000155602082015181600101556040820151816002015560608201518160030155608082015181600401908051906020019061112b9291906120a2565b5090505060086040518060a0016040528060065481526020018681526020018581526020018481526020018381525090806001815401808255809150506001900390600052602060002090600502016000909190919091506000820151816000015560208201518160010155604082015181600201556060820151816003015560808201518160040190805190602001906111c79291906120a2565b5050506000600b6000600654815260200190815260200160002060006101000a81548160ff02191690831515021790555050505050565b6000806002600084815260200190815260200160002060009054906101000a900473ffffffffffffffffffffffffffffffffffffffff169050600073ffffffffffffffffffffffffffffffffffffffff168173ffffffffffffffffffffffffffffffffffffffff1614156112a7576040517f08c379a000000000000000000000000000000000000000000000000000000000815260040161129e90612e0e565b60405180910390fd5b80915050919050565b60008073ffffffffffffffffffffffffffffffffffffffff168273ffffffffffffffffffffffffffffffffffffffff161415611321576040517f08c379a000000000000000000000000000000000000000000000000000000000815260040161131890612dee565b60405180910390fd5b600360008373ffffffffffffffffffffffffffffffffffffffff1673ffffffffffffffffffffffffffffffffffffffff168152602001908152602001600020549050919050565b60606001805461137790613204565b80601f01602080910402602001604051908101604052809291908181526020018280546113a390613204565b80156113f05780601f106113c5576101008083540402835291602001916113f0565b820191906000526020600020905b8154815290600101906020018083116113d357829003601f168201915b5050505050905090565b6114026118d8565b73ffffffffffffffffffffffffffffffffffffffff168273ffffffffffffffffffffffffffffffffffffffff161415611470576040517f08c379a000000000000000000000000000000000000000000000000000000000815260040161146790612d8e565b60405180910390fd5b806005600061147d6118d8565b73ffffffffffffffffffffffffffffffffffffffff1673ffffffffffffffffffffffffffffffffffffffff16815260200190815260200160002060008473ffffffffffffffffffffffffffffffffffffffff1673ffffffffffffffffffffffffffffffffffffffff16815260200190815260200160002060006101000a81548160ff0219169083151502179055508173ffffffffffffffffffffffffffffffffffffffff1661152a6118d8565b73ffffffffffffffffffffffffffffffffffffffff167f17307eab39ab6107e8899845ad3d59bd9653f200f220920489ca2b5937696c318360405161156f9190612d11565b60405180910390a35050565b60096020528060005260406000206000915090508060000154908060010154908060020154908060030154908060040180546115b690613204565b80601f01602080910402602001604051908101604052809291908181526020018280546115e290613204565b801561162f5780601f106116045761010080835404028352916020019161162f565b820191906000526020600020905b81548152906001019060200180831161161257829003601f168201915b5050505050905085565b61164a6116446118d8565b83611999565b611689576040517f08c379a000000000000000000000000000000000000000000000000000000000815260040161168090612eae565b60405180910390fd5b61169584848484611cd3565b50505050565b60606116a68261186c565b6116e5576040517f08c379a00000000000000000000000000000000000000000000000000000000081526004016116dc90612e6e565b60405180910390fd5b60006116ef611d2f565b9050600081511161170f576040518060200160405280600081525061173a565b8061171984611d46565b60405160200161172a929190612c49565b6040516020818303038152906040525b915050919050565b60065481565b6000600560008473ffffffffffffffffffffffffffffffffffffffff1673ffffffffffffffffffffffffffffffffffffffff16815260200190815260200160002060008373ffffffffffffffffffffffffffffffffffffffff1673ffffffffffffffffffffffffffffffffffffffff16815260200190815260200160002060009054906101000a900460ff16905092915050565b600760009054906101000a900473ffffffffffffffffffffffffffffffffffffffff1681565b60007f01ffc9a7000000000000000000000000000000000000000000000000000000007bffffffffffffffffffffffffffffffffffffffffffffffffffffffff1916827bffffffffffffffffffffffffffffffffffffffffffffffffffffffff1916149050919050565b60008073ffffffffffffffffffffffffffffffffffffffff166002600084815260200190815260200160002060009054906101000a900473ffffffffffffffffffffffffffffffffffffffff1673ffffffffffffffffffffffffffffffffffffffff1614159050919050565b600033905090565b816004600083815260200190815260200160002060006101000a81548173ffffffffffffffffffffffffffffffffffffffff021916908373ffffffffffffffffffffffffffffffffffffffff160217905550808273ffffffffffffffffffffffffffffffffffffffff16611953836111fe565b73ffffffffffffffffffffffffffffffffffffffff167f8c5be1e5ebec7d5bd14f71427d1e84f3dd0314c0f7b2291e5b200ac8c7c3b92560405160405180910390a45050565b60006119a48261186c565b6119e3576040517f08c379a00000000000000000000000000000000000000000000000000000000081526004016119da90612dae565b60405180910390fd5b60006119ee836111fe565b90508073ffffffffffffffffffffffffffffffffffffffff168473ffffffffffffffffffffffffffffffffffffffff161480611a5d57508373ffffffffffffffffffffffffffffffffffffffff16611a458461073b565b73ffffffffffffffffffffffffffffffffffffffff16145b80611a6e5750611a6d8185611748565b5b91505092915050565b8273ffffffffffffffffffffffffffffffffffffffff16611a97826111fe565b73ffffffffffffffffffffffffffffffffffffffff1614611aed576040517f08c379a0000000000000000000000000000000000000000000000000000000008152600401611ae490612e4e565b60405180910390fd5b600073ffffffffffffffffffffffffffffffffffffffff168273ffffffffffffffffffffffffffffffffffffffff161415611b5d576040517f08c379a0000000000000000000000000000000000000000000000000000000008152600401611b5490612d6e565b60405180910390fd5b611b68838383611ef3565b611b736000826118e0565b6001600360008573ffffffffffffffffffffffffffffffffffffffff1673ffffffffffffffffffffffffffffffffffffffff1681526020019081526020016000206000828254611bc39190613108565b925050819055506001600360008473ffffffffffffffffffffffffffffffffffffffff1673ffffffffffffffffffffffffffffffffffffffff1681526020019081526020016000206000828254611c1a9190613081565b92505081905550816002600083815260200190815260200160002060006101000a81548173ffffffffffffffffffffffffffffffffffffffff021916908373ffffffffffffffffffffffffffffffffffffffff160217905550808273ffffffffffffffffffffffffffffffffffffffff168473ffffffffffffffffffffffffffffffffffffffff167fddf252ad1be2c89b69c2b068fc378daa952ba7f163c4a11628f55a4df523b3ef60405160405180910390a4505050565b611cde848484611a77565b611cea84848484611ef8565b611d29576040517f08c379a0000000000000000000000000000000000000000000000000000000008152600401611d2090612d4e565b60405180910390fd5b50505050565b606060405180602001604052806000815250905090565b60606000821415611d8e576040518060400160405280600181526020017f30000000000000000000000000000000000000000000000000000000000000008152509050611eee565b600082905060005b60008214611dc0578080611da990613236565b915050600a82611db991906130d7565b9150611d96565b60008167ffffffffffffffff811115611e02577f4e487b7100000000000000000000000000000000000000000000000000000000600052604160045260246000fd5b6040519080825280601f01601f191660200182016040528015611e345781602001600182028036833780820191505090505b5090505b60008514611ee757600182611e4d9190613108565b9150600a85611e5c919061327f565b6030611e689190613081565b60f81b818381518110611ea4577f4e487b7100000000000000000000000000000000000000000000000000000000600052603260045260246000fd5b60200101907effffffffffffffffffffffffffffffffffffffffffffffffffffffffffffff1916908160001a905350600a85611ee091906130d7565b9450611e38565b8093505050505b919050565b505050565b6000611f198473ffffffffffffffffffffffffffffffffffffffff1661208f565b15612082578373ffffffffffffffffffffffffffffffffffffffff1663150b7a02611f426118d8565b8786866040518563ffffffff1660e01b8152600401611f649493929190612ca3565b602060405180830381600087803b158015611f7e57600080fd5b505af1925050508015611faf57506040513d601f19601f82011682018060405250810190611fac919061244e565b60015b612032573d8060008114611fdf576040519150601f19603f3d011682016040523d82523d6000602084013e611fe4565b606091505b5060008151141561202a576040517f08c379a000000000000000000000000000000000000000000000000000000000815260040161202190612d4e565b60405180910390fd5b805181602001fd5b63150b7a0260e01b7bffffffffffffffffffffffffffffffffffffffffffffffffffffffff1916817bffffffffffffffffffffffffffffffffffffffffffffffffffffffff191614915050612087565b600190505b949350505050565b600080823b905060008111915050919050565b8280546120ae90613204565b90600052602060002090601f0160209004810192826120d05760008555612117565b82601f106120e957805160ff1916838001178555612117565b82800160010185558215612117579182015b828111156121165782518255916020019190600101906120fb565b5b5090506121249190612128565b5090565b5b80821115612141576000816000905550600101612129565b5090565b600061215861215384612f94565b612f63565b90508281526020810184848401111561217057600080fd5b61217b8482856131c2565b509392505050565b600061219661219184612fc4565b612f63565b9050828152602081018484840111156121ae57600080fd5b6121b98482856131c2565b509392505050565b6000813590506121d08161337d565b92915050565b6000813590506121e581613394565b92915050565b6000813590506121fa816133ab565b92915050565b60008151905061220f816133ab565b92915050565b600082601f83011261222657600080fd5b8135612236848260208601612145565b91505092915050565b600082601f83011261225057600080fd5b8135612260848260208601612183565b91505092915050565b600081359050612278816133c2565b92915050565b60006020828403121561229057600080fd5b600061229e848285016121c1565b91505092915050565b600080604083850312156122ba57600080fd5b60006122c8858286016121c1565b92505060206122d9858286016121c1565b9150509250929050565b6000806000606084860312156122f857600080fd5b6000612306868287016121c1565b9350506020612317868287016121c1565b925050604061232886828701612269565b9150509250925092565b6000806000806080858703121561234857600080fd5b6000612356878288016121c1565b9450506020612367878288016121c1565b935050604061237887828801612269565b925050606085013567ffffffffffffffff81111561239557600080fd5b6123a187828801612215565b91505092959194509250565b600080604083850312156123c057600080fd5b60006123ce858286016121c1565b92505060206123df858286016121d6565b9150509250929050565b600080604083850312156123fc57600080fd5b600061240a858286016121c1565b925050602061241b85828601612269565b9150509250929050565b60006020828403121561243757600080fd5b6000612445848285016121eb565b91505092915050565b60006020828403121561246057600080fd5b600061246e84828501612200565b91505092915050565b60006020828403121561248957600080fd5b600061249784828501612269565b91505092915050565b600080600080608085870312156124b657600080fd5b60006124c487828801612269565b94505060206124d587828801612269565b93505060406124e687828801612269565b925050606085013567ffffffffffffffff81111561250357600080fd5b61250f8782880161223f565b91505092959194509250565b60006125278383612bb5565b905092915050565b6125388161314e565b82525050565b6125478161313c565b82525050565b600061255882613004565b6125628185613032565b93508360208202850161257485612ff4565b8060005b858110156125b05784840389528151612591858261251b565b945061259c83613025565b925060208a01995050600181019050612578565b50829750879550505050505092915050565b6125cb81613160565b82525050565b60006125dc8261300f565b6125e68185613043565b93506125f68185602086016131d1565b6125ff8161336c565b840191505092915050565b60006126158261301a565b61261f8185613054565b935061262f8185602086016131d1565b6126388161336c565b840191505092915050565b600061264e8261301a565b6126588185613065565b93506126688185602086016131d1565b6126718161336c565b840191505092915050565b60006126878261301a565b6126918185613076565b93506126a18185602086016131d1565b80840191505092915050565b60006126ba603283613065565b91507f4552433732313a207472616e7366657220746f206e6f6e20455243373231526560008301527f63656976657220696d706c656d656e74657200000000000000000000000000006020830152604082019050919050565b6000612720602483613065565b91507f4552433732313a207472616e7366657220746f20746865207a65726f2061646460008301527f72657373000000000000000000000000000000000000000000000000000000006020830152604082019050919050565b6000612786601983613065565b91507f4552433732313a20617070726f766520746f2063616c6c6572000000000000006000830152602082019050919050565b60006127c6602c83613065565b91507f4552433732313a206f70657261746f7220717565727920666f72206e6f6e657860008301527f697374656e7420746f6b656e00000000000000000000000000000000000000006020830152604082019050919050565b600061282c603883613065565b91507f4552433732313a20617070726f76652063616c6c6572206973206e6f74206f7760008301527f6e6572206e6f7220617070726f76656420666f7220616c6c00000000000000006020830152604082019050919050565b6000612892602a83613065565b91507f4552433732313a2062616c616e636520717565727920666f7220746865207a6560008301527f726f2061646472657373000000000000000000000000000000000000000000006020830152604082019050919050565b60006128f8602983613065565b91507f4552433732313a206f776e657220717565727920666f72206e6f6e657869737460008301527f656e7420746f6b656e00000000000000000000000000000000000000000000006020830152604082019050919050565b600061295e602c83613065565b91507f4552433732313a20617070726f76656420717565727920666f72206e6f6e657860008301527f697374656e7420746f6b656e00000000000000000000000000000000000000006020830152604082019050919050565b60006129c4602983613065565b91507f4552433732313a207472616e73666572206f6620746f6b656e2074686174206960008301527f73206e6f74206f776e00000000000000000000000000000000000000000000006020830152604082019050919050565b6000612a2a602f83613065565b91507f4552433732314d657461646174613a2055524920717565727920666f72206e6f60008301527f6e6578697374656e7420746f6b656e00000000000000000000000000000000006020830152604082019050919050565b6000612a90602183613065565b91507f4552433732313a20617070726f76616c20746f2063757272656e74206f776e6560008301527f72000000000000000000000000000000000000000000000000000000000000006020830152604082019050919050565b6000612af6603183613065565b91507f4552433732313a207472616e736665722063616c6c6572206973206e6f74206f60008301527f776e6572206e6f7220617070726f7665640000000000000000000000000000006020830152604082019050919050565b6000612b5c602583613065565b91507f416c7265616479206f776e656420627920736f6d656f6e6520656c73652e205360008301527f6f7272792e0000000000000000000000000000000000000000000000000000006020830152604082019050919050565b600060a083016000830151612bcd6000860182612c2b565b506020830151612be06020860182612c2b565b506040830151612bf36040860182612c2b565b506060830151612c066060860182612c2b565b5060808301518482036080860152612c1e828261260a565b9150508091505092915050565b612c34816131b8565b82525050565b612c43816131b8565b82525050565b6000612c55828561267c565b9150612c61828461267c565b91508190509392505050565b6000602082019050612c82600083018461253e565b92915050565b6000602082019050612c9d600083018461252f565b92915050565b6000608082019050612cb8600083018761253e565b612cc5602083018661253e565b612cd26040830185612c3a565b8181036060830152612ce481846125d1565b905095945050505050565b60006020820190508181036000830152612d09818461254d565b905092915050565b6000602082019050612d2660008301846125c2565b92915050565b60006020820190508181036000830152612d468184612643565b905092915050565b60006020820190508181036000830152612d67816126ad565b9050919050565b60006020820190508181036000830152612d8781612713565b9050919050565b60006020820190508181036000830152612da781612779565b9050919050565b60006020820190508181036000830152612dc7816127b9565b9050919050565b60006020820190508181036000830152612de78161281f565b9050919050565b60006020820190508181036000830152612e0781612885565b9050919050565b60006020820190508181036000830152612e27816128eb565b9050919050565b60006020820190508181036000830152612e4781612951565b9050919050565b60006020820190508181036000830152612e67816129b7565b9050919050565b60006020820190508181036000830152612e8781612a1d565b9050919050565b60006020820190508181036000830152612ea781612a83565b9050919050565b60006020820190508181036000830152612ec781612ae9565b9050919050565b60006020820190508181036000830152612ee781612b4f565b9050919050565b6000602082019050612f036000830184612c3a565b92915050565b600060a082019050612f1e6000830188612c3a565b612f2b6020830187612c3a565b612f386040830186612c3a565b612f456060830185612c3a565b8181036080830152612f578184612643565b90509695505050505050565b6000604051905081810181811067ffffffffffffffff82111715612f8a57612f8961333d565b5b8060405250919050565b600067ffffffffffffffff821115612faf57612fae61333d565b5b601f19601f8301169050602081019050919050565b600067ffffffffffffffff821115612fdf57612fde61333d565b5b601f19601f8301169050602081019050919050565b6000819050602082019050919050565b600081519050919050565b600081519050919050565b600081519050919050565b6000602082019050919050565b600082825260208201905092915050565b600082825260208201905092915050565b600082825260208201905092915050565b600082825260208201905092915050565b600081905092915050565b600061308c826131b8565b9150613097836131b8565b9250827fffffffffffffffffffffffffffffffffffffffffffffffffffffffffffffffff038211156130cc576130cb6132b0565b5b828201905092915050565b60006130e2826131b8565b91506130ed836131b8565b9250826130fd576130fc6132df565b5b828204905092915050565b6000613113826131b8565b915061311e836131b8565b925082821015613131576131306132b0565b5b828203905092915050565b600061314782613198565b9050919050565b600061315982613198565b9050919050565b60008115159050919050565b60007fffffffff0000000000000000000000000000000000000000000000000000000082169050919050565b600073ffffffffffffffffffffffffffffffffffffffff82169050919050565b6000819050919050565b82818337600083830152505050565b60005b838110156131ef5780820151818401526020810190506131d4565b838111156131fe576000848401525b50505050565b6000600282049050600182168061321c57607f821691505b602082108114156132305761322f61330e565b5b50919050565b6000613241826131b8565b91507fffffffffffffffffffffffffffffffffffffffffffffffffffffffffffffffff821415613274576132736132b0565b5b600182019050919050565b600061328a826131b8565b9150613295836131b8565b9250826132a5576132a46132df565b5b828206905092915050565b7f4e487b7100000000000000000000000000000000000000000000000000000000600052601160045260246000fd5b7f4e487b7100000000000000000000000000000000000000000000000000000000600052601260045260246000fd5b7f4e487b7100000000000000000000000000000000000000000000000000000000600052602260045260246000fd5b7f4e487b7100000000000000000000000000000000000000000000000000000000600052604160045260246000fd5b6000601f19601f8301169050919050565b6133868161313c565b811461339157600080fd5b50565b61339d81613160565b81146133a857600080fd5b50565b6133b48161316c565b81146133bf57600080fd5b50565b6133cb816131b8565b81146133d657600080fd5b5056fea2646970667358221220103f7007f743a4428628079700420ef3ad0b1d95c8c862ef03892d51c532cd6264736f6c63430008000033",
  "immutableReferences": {},
  "source": "// SPDX-License-Identifier: MIT\r\npragma solidity >=0.4.22 <0.9.0;\r\n\r\nimport \"@openzeppelin/contracts/token/ERC721/ERC721.sol\";\r\n\r\ncontract DateNFT is ERC721 {\r\n    uint public totalDates = 0;\r\n    address payable public admin;\r\n    \r\n    constructor() ERC721(\"Date\", \"DATE\") {\r\n        admin = payable(msg.sender);\r\n    }\r\n\r\n    struct Date {\r\n        uint id;\r\n        uint day;\r\n        uint month;\r\n        uint year;\r\n        string title;\r\n    }\r\n\r\n    Date[] public dateArray;\r\n    mapping (uint => Date) public dateIds;\r\n    mapping (address => Date[]) public dateOwners;\r\n    mapping (uint => bool) public isDateOwned;\r\n\r\n    modifier isOwner {\r\n        require(msg.sender == admin);\r\n        _;\r\n    }\r\n\r\n    function mint(uint day, uint month, uint year, string memory title) isOwner public {\r\n        totalDates++;\r\n\r\n        dateIds[totalDates] = Date(totalDates, day, month, year, title);\r\n        dateArray.push(Date(totalDates, day, month, year, title));\r\n        isDateOwned[totalDates] = false;\r\n    }\r\n\r\n    function claim(uint id) public payable {\r\n        require(msg.value > 0.1 ether);\r\n        require(isDateOwned[id] != true, \"Already owned by someone else. Sorry.\");\r\n\r\n        isDateOwned[id] = true;\r\n        Date[] storage ownersDates = dateOwners[msg.sender];\r\n        Date memory date = dateIds[id];\r\n        ownersDates.push(date);\r\n\r\n        admin.transfer(address(this).balance);\r\n    }\r\n    \r\n    function getAllDates() view public returns(Date[] memory) {\r\n        return dateArray;\r\n    }\r\n    \r\n    function getAllOwnedDates() view public returns(Date[] memory) {\r\n        return dateOwners[msg.sender];\r\n    }\r\n}",
  "sourcePath": "C:\\Users\\yashs\\OneDrive\\Documents\\Keyko.io\\NFT\\contracts\\DateNFT.sol",
  "compiler": {
    "name": "solc",
    "version": "0.8.0+commit.c7dfd78e.Emscripten.clang"
  },
  "schemaVersion": "3.4.3",
  "updatedAt": "2021-09-12T05:14:49.159Z",
  "networkType": "ethereum",
  "devdoc": {
    "kind": "dev",
    "methods": {
      "approve(address,uint256)": {
        "details": "See {IERC721-approve}."
      },
      "balanceOf(address)": {
        "details": "See {IERC721-balanceOf}."
      },
      "getApproved(uint256)": {
        "details": "See {IERC721-getApproved}."
      },
      "isApprovedForAll(address,address)": {
        "details": "See {IERC721-isApprovedForAll}."
      },
      "name()": {
        "details": "See {IERC721Metadata-name}."
      },
      "ownerOf(uint256)": {
        "details": "See {IERC721-ownerOf}."
      },
      "safeTransferFrom(address,address,uint256)": {
        "details": "See {IERC721-safeTransferFrom}."
      },
      "safeTransferFrom(address,address,uint256,bytes)": {
        "details": "See {IERC721-safeTransferFrom}."
      },
      "setApprovalForAll(address,bool)": {
        "details": "See {IERC721-setApprovalForAll}."
      },
      "supportsInterface(bytes4)": {
        "details": "See {IERC165-supportsInterface}."
      },
      "symbol()": {
        "details": "See {IERC721Metadata-symbol}."
      },
      "tokenURI(uint256)": {
        "details": "See {IERC721Metadata-tokenURI}."
      },
      "transferFrom(address,address,uint256)": {
        "details": "See {IERC721-transferFrom}."
      }
    },
    "version": 1
  },
  "userdoc": {
    "kind": "user",
    "methods": {},
    "version": 1
  }
}